:100000000C9472000C9493000C9493000C94930045
:100010000C9493000C9493000C9493000C94930014
:100020000C9493000C9493000C9493000C94930004
:100030000C9493000C9493000C9493000C949300F4
:100040000C9493000C9493000C9493000C949300E4
:100050000C9493000C9493000C9493000C949300D4
:100060000C9493000C9493000C9493000C94EA006D
:100070000C9493000C9493000C9493000C949300B4
:100080000C9493000C9493000C9493000C949300A4
:100090000C9493000C9493000C9493000C94930094
:1000A0000C9493000C9493000C9493000C94930084
:1000B0000C9493000C9493000C9493000C94930074
:1000C0000C9493000C9493000C9493000C94930064
:1000D0000C9493000C9493000C9493000C94930054
:1000E0000C94930011241FBECFEFD1E2DEBFCDBF31
:1000F00000E00CBF14E0A0E0B2E0E0E6F4E100E0D4
:100100000BBF02C007900D92A235B107D9F72CE0C2
:10011000A2E5B4E001C01D92A437B207E1F70E9446
:10012000A0060C942E0A0C940000AC0178949091D7
:1001300081009260909381009091810098609093EB
:10014000810080ED97E09093890080938800109261
:10015000850010928400B19A20E030E02417350722
:1001600034F4B19BFECFB19A2F5F3F4FF7CF809110
:1001700081008D7F80938100089590915204E92F32
:10018000F0E0E659F74F80839F5F90935204089503
:100190001F93CF93DF93EC0110E0812F90E0FE01DD
:1001A00001900020E9F73197EC1BFD0B8E179F079C
:1001B00040F4FE01E80FF91F80810E94BD001F5F1F
:1001C000ECCF8091C00085FD1092C600DF91CF91E9
:1001D0001F9108951F920F920FB60F9211240BB624
:1001E0000F928F93EF93FF93E09153048091520409
:1001F000E81759F0F0E0E659F74F80818093C60088
:10020000809153048F5F80935304FF91EF918F91FE
:100210000F900BBE0F900FBE0F901F901895EAE73E
:10022000F0E0808180688083808188608083ECE753
:10023000F0E08081816680830895ECE7F0E09081B2
:1002400081E08927808308950F931F93CF93DF93D5
:10025000CDB7DEB72A970FB6F894DEBF0FBECDBF7D
:100260009F938F938EE294E09F938F938E010F5F05
:100270001F4F1F930F930E9445070F900F900F90F1
:100280000F900F900F9080E0F801E80FF11D908122
:10029000992321F09093C6008F5FF6CF81E394E01D
:1002A0000E94C8002A960FB6F894DEBF0FBECDBFDD
:1002B000DF91CF911F910F91089540E050E040935E
:1002C000C60020915608309157082F573109220F48
:1002D000331F220F331FFC0121933193CF014F5F56
:1002E0005F4F4115F1E05F0751F7089521E6209334
:1002F0007C0046ED40937A0020917A0024FFFCCFE9
:1003000020917800309179003058FC01219331938D
:10031000CF016150710971F710927A00089587B189
:10032000807F87B9459A469882E08A95F1F700C0A8
:10033000479A92E09A95F1F700C086B18295807F46
:1003400092E09A95F1F700C0479895E09A95F1F7F9
:100350000000479A92E09A95F1F700C096B192E0BA
:100360009A95F1F700C0479895E09A95F1F700004B
:1003700087FDDECF459887B18F6087B90895282F14
:1003800022952F708F70611102C0469801C0469A65
:1003900092E09A95F1F700C0479A98B1907F922B1E
:1003A00098B995E09A95F1F70000479895E09A95ED
:1003B000F1F70000479A98B1907F892B88B985E0C2
:1003C0008A95F1F70000479895E09A95F1F70000BB
:1003D0000C948F01CF93C82F2FEF86E791E0215027
:1003E00080409040E1F700C0000087B18F6087B97E
:1003F0003F9A3E9A3D9A88B1807F88B94798459840
:10040000469800C000C00000479A419A25E02A950E
:10041000F1F70000479885E08A95F1F700000E9407
:100420008F0160E08C2F8C600E94BF0160E088E249
:10043000CF910C94BF01CF93DF93EC018991882376
:1004400021F061E00E94BF01F9CFDF91CF910895C3
:10045000EF92FF920F931F93CF93DF9300D01F92E1
:100460001F92CDB7DEB79B01AE014F5F5F4F7A01A0
:1004700045E0F70111924A95E9F7FE0136960AE048
:1004800010E0009731F0B8010E941D078293CB0164
:10049000F8CF2F3FFFEF3F0741F4F7018F010E190F
:1004A0001F0981918823D1F304C005E010E0021BED
:1004B000130B0E0D1F1DC8018E199F09059744F4DB
:1004C000F80181918F0161E0805D0E94BF01F3CF4F
:1004D0000F900F900F900F900F90DF91CF911F9181
:1004E0000F91FF90EF900895883230F4611180648D
:1004F00060E080680C94BF01089560E081E00E9494
:10050000BF0183E00E94EA0160E081E00E94BF0138
:1005100085E494E00C941B023D0A410A4F0A660AE6
:10052000850AAE0AE00A1B0B5E0BAB0B010C5F0CDD
:10053000C60C360DAE0D2F0EB80E4A0FE40F861006
:100540003111E3119D125F132914FA14D315B31658
:100550009A1788187D19791A7C1B841C931DA91E73
:10056000C41FE4200B22372368249E25D92618288F
:100570005C29A52AF12B422D962EED2F4831A6326B
:1005800006346A35CF363738A1390D3B7A3CE93D20
:10059000583FC9403A42AC431E4590460148724913
:1005A000E34A534CC14D2F4F9A5004526C53D254CE
:1005B00035569657F4584E5AA65BFA5C4A5E975FDA
:1005C000DF60236263639E64D465056731685769A1
:1005D000786A936BA86CB76DC06EC26FBE70B37152
:1005E000A1728873687441751276DC769E775878AC
:1005F0000B79B579577AF17A837B0C7C8D7C067DFB
:10060000757DDC7D3B7E907EDD7E217F5B7F8D7FF7
:10061000B67FD67FEC7FFA7FFE7FFA7FEC7FD67FB6
:10062000B67F8D7F5B7F217FDD7E907E3B7EDD7D93
:10063000757D067D8D7C0D7C837BF17A577AB5794B
:100640000B7958789E77DC761276417568748873DA
:10065000A172B371BE70C26FC06EB76DA86C936BA0
:10066000786A576931680567D4659E64636323625D
:10067000DF60975F4A5EFA5CA65B4E5AF458965765
:100680003556D2546C5304529A502F4FC14D534C8F
:10069000E34A7349014890461E45AC433A42C9407B
:1006A000583FE93D7A3C0D3BA1393738CF366A35A2
:1006B0000634A6324831ED2F962E422DF12BA52A75
:1006C0005C291828D9269E25682437230B22E4208C
:1006D000C41FA91E931D841C7C1B791A7E198818BF
:1006E0009A17B316D315FA1429145F139D12E31148
:1006F00031118610E40F4A0FB80E2F0EAE0D360DD5
:10070000C60C5F0C010CAB0B5E0B1B0BE00AAE0AB8
:10071000850A660A4F0A410AFF7F0000F57F24031D
:10072000D77F4706A67F6A09617F8B0C087FAB0FD6
:100730009C7EC7121C7EE115897DF818E27C0B1C9B
:10074000297C191F5C7B23227C7A2725897926281E
:1007500083781E2B6B77102E4076FB300375DE33CB
:10076000B573B93654728C39E170563C5E6F163FE2
:10077000C96DCD41236C7A446C6A1C47A568B349A6
:10078000CE663F4CE764BF4EF1623351EB609A5343
:10079000D65EF455B35C4258815A815A4258B35CD4
:1007A000F455D65E9A53EB603351F162BF4EE76465
:1007B0003F4CCE66B349A5681C476C6A7A44236CEB
:1007C000CD41C96D163F5E6F563CE1708C39547255
:1007D000B936B573DE330375FB304076102E6B7778
:1007E0001E2B83782628897927257C7A23225C7B17
:1007F000191F297C0B1CE27CF818897DE1151C7EF1
:10080000C7129C7EAB0F087F8B0C617F6A09A67FA5
:100810004706D77F2403F57F0000FE7FDCFCF57FD1
:10082000B9F9D77F96F6A67F75F3617F56F0087FFA
:1008300039ED9C7E1FEA1C7E08E7897DF5E3E27CAA
:10084000E7E0297CDDDD5C7BD9DA7C7ADAD789794F
:10085000E2D48378F0D16B7705CF407622CC037554
:1008600047C9B57374C65472AAC3E170EAC05E6F1B
:1008700033BEC96D86BB236CE4B86C6A4DB6A568FF
:10088000C1B3CE6641B1E764CDAEF16266ACEB6058
:100890000CAAD65EBEA7B35C7FA5815A4DA3425871
:1008A0002AA1F555159F9A530F9D3351199BBF4EA1
:1008B00032993F4C5B97B34994951C47DD937A443A
:1008C0003792CD41A290163F1F8F563CAC8D8C398C
:1008D0004C8CB936FD8ADE33C089FB309588102EEA
:1008E0007D871E2B7786262884852725A4842322AE
:1008F000D883191F1E830B1C7782F818E481E11539
:100900006481C712F880AB0F9F808B0C5A806A09F4
:10091000298047060B802403000000020001000329
:1009200080008002800180034000400240014003BB
:10093000C000C002C001C00320002002200120032B
:10094000A000A002A001A00360006002600160039B
:10095000E000E002E001E0031000100210011003CB
:1009600090009002900190035000500250015003FB
:10097000D000D002D001D00330003002300130036B
:10098000B000B002B001B0037000700270017003DB
:10099000F000F002F001F00308000802080108036B
:1009A00088008802880188034800480248014803FB
:1009B000C800C802C801C80328002802280128036B
:1009C000A800A802A801A8036800680268016803DB
:1009D000E800E802E801E80318001802180118030B
:1009E000980098029801980358005802580158033B
:1009F000D800D802D801D8033800380238013803AB
:100A0000B800B802B801B80378007802780178031A
:100A1000F800F802F801F8033F922F921F930F930A
:100A2000DF93CF93DC01EB019927E8E1F5E000E0EB
:100A300011E0259135914D915D91B503B0012C03E5
:100A40001001691FBC03790B300C611D791FDA039B
:100A5000790B300C611D791F6993799369937993B0
:100A60000150104031F7CF91DF910F911F912F90DE
:100A70003F90112408953F922F925F924F927F9260
:100A80006F929F928F92BF92AF92DF92CF92FF921E
:100A9000EF921F930F93DF93CF93FC0181E090E0DF
:100AA000A0E8B0E004E0809F6001909FD00C7C0142
:100AB0009F938F93EF01A09FC00DD11DB09FD00DCC
:100AC000FF93EF93BB24AA249927008111811595E8
:100AD00007956881798175956795A801061B170BA5
:100AE000460F571F419351932081318135952795AA
:100AF0006A817B8175956795A901261B370B460F87
:100B0000571F419351930F01E8E1F7E0EA0DFB1DF8
:100B10004591559165917591F001950320010C0364
:100B20001001491E9C03590A300C411C591ED80360
:100B3000590A300C411C591EB70340012E033001E5
:100B4000891EBE03990A700C811C991EFA03990A2A
:100B5000700C811C991E260C371C481C591C49928C
:100B60005992B50320012C031001491EBC03590AF8
:100B7000300C411C591EDA03590A300C411C591E15
:100B8000970340010E033001891E9E03990A700CE1
:100B9000811C991EF803990A700C811C991E261855
:100BA00037084808590849925992AC0CBD1CB1FE4F
:100BB0008CCF04E0A09FC00DD11DE00DF11DB09FB2
:100BC000D00DF00D81E0E81AF90A09F07BCFEF9122
:100BD000FF918F919F91880F991FB695A7951096B9
:100BE00009F060CFCF91DF910F911F91EF90FF90AF
:100BF000CF90DF90AF90BF908F909F906F907F903D
:100C00004F905F902F903F9008953F922F925F9268
:100C10004F927F926F929F928F92BF92AF921F934B
:100C20000F93DF93CF935C01EB01E8E1F9E09927A3
:100C300000E810E0A591B591AA0DBB1D2D913D9145
:100C40004D915D91B30320012A031001491EBA039F
:100C5000590A300C411C591EBA03590A300C411C68
:100C6000591ED50340014C033001891EDC03990A4B
:100C7000700C811C991EDC03990A700C811C991E52
:100C8000260C371C481C591C662477248824992478
:100C900021E030E04427552770E1220C331C441C2E
:100CA000551C661C771C881C991C220C331C441C88
:100CB000551C661C771C881C991C2AF4620E731E36
:100CC000841E951E04C0621A730A840A950A220FB4
:100CD000331F441F287F256097FC22507A95E9F640
:100CE00046953795279546953795279529933993B6
:100CF0000150104009F09ECFCF91DF910F911F91CD
:100D0000AF90BF908F909F906F907F904F905F902B
:100D10002F903F9011240895AC019927D703F0013B
:100D20004E03D001E91FDE03F90BB00DE11DF91FE1
:100D3000FC03F90BB00DE11DF91FCF01112408953B
:100D4000F8941092C50087E68093C40088E48093ED
:100D5000C10086E08093C20078940EE214E08AE637
:100D6000E82E8CE0F82E60E071E08AE699E00E94BF
:100D70007601109285001092840066E574E08AE6A0
:100D800099E00E940C0580918400909185009093D9
:100D9000690880936808109285001092840086E5A7
:100DA00094E00E943B05809184009091850090938F
:100DB00059088093580810928500109284006AE6C2
:100DC0007BE086E594E00E94050680918400909186
:100DD0008500909355048093540484E394E00E942A
:100DE000C800CAE6DBE08881998122969F938F93A1
:100DF0001F930F93FF92EF920E9445078AE69CE0B3
:100E00000E94C8008CE394E00E94C8000F900F90ED
:100E10000F900F900F900F908CE0CA36D80719F7FB
:100E200081E394E00E94C8008EE394E00E94C80031
:100E300084EC99E00E94950096CF97FB072E16F45C
:100E4000009407D077FD09D00E94310707FC05D038
:100E50003EF4909581959F4F0895709561957F4FD1
:100E60000895AA1BBB1B51E107C0AA1FBB1FA617F1
:100E7000B70710F0A61BB70B881F991F5A95A9F743
:100E800080959095BC01CD0108950F931F93CF934A
:100E9000DF93CDB7DEB72E970FB6F894DEBF0FBE47
:100EA000CDBF0E891F8986E08C831A8309838FEF5B
:100EB0009FE79E838D83AE01465E5F4F688D798D7F
:100EC000CE0101960E947407EF81F885E00FF11FB3
:100ED00010822E960FB6F894DEBF0FBECDBFDF9105
:100EE000CF911F910F9108952F923F924F925F9251
:100EF0006F927F928F929F92AF92BF92CF92DF922A
:100F0000EF92FF920F931F93CF93DF93CDB7DEB78E
:100F10002B970FB6F894DEBF0FBECDBF6C017B01DF
:100F20008A01FC0117821682838181FFCCC1CE0128
:100F300001963C01F6019381F70193FD859193FFA2
:100F400081917F01882309F4BAC1853239F493FD78
:100F5000859193FF81917F01853229F4B60190E05C
:100F60000E949409E7CF912C212C312CFFE1F3153D
:100F7000D8F08B3279F038F4803279F08332A1F4F2
:100F8000232D20611DC08D3261F0803369F4232D43
:100F9000216016C0832D8260382EE32DE4603E2E42
:100FA0002AC0F32DF8601DC037FC2DC020ED280F9E
:100FB0002A3040F08E32B9F436FC81C1232D2064F2
:100FC000322E19C036FE06C08AE0989E200D1124EC
:100FD000922E11C0EAE02E9E200D1124222EF32D18
:100FE000F0623F2E08C08C3621F4832D8068382EA5
:100FF00002C0883641F4F70193FD859193FF8191FA
:101000007F018111B3CF982F9F7D9554933028F4A1
:101010000C5F1F4F9FE399830DC0833631F08337F8
:1010200071F0833509F059C021C0F80180818983AE
:101030000E5F1F4F88248394912C530113C0280105
:10104000F2E04F0E511CF801A080B18036FE03C0C3
:10105000692D70E002C06FEF7FEFC5010E94890922
:101060004C018201F32DFF773F2E16C0280122E0AC
:10107000420E511CF801A080B18036FE03C0692DDC
:1010800070E002C06FEF7FEFC5010E947E094C0146
:10109000F32DF0683F2E820133FC1BC0822D90E0BF
:1010A00088169906B0F4B60180E290E00E94940997
:1010B0002A94F4CFF50137FC859137FE81915F01C9
:1010C000B60190E00E94940921102A9421E0821A2E
:1010D00091088114910471F7E8C0843611F08936C3
:1010E00041F5F80137FE07C06081718182819381EB
:1010F0000C5F1F4F08C060817181072E000C880BA8
:10110000990B0E5F1F4FF32DFF763F2E97FF09C0FF
:1011100090958095709561957F4F8F4F9F4FF068A8
:101120003F2E2AE030E0A3010E94D009882E8618C5
:1011300045C0853731F4232D2F7EB22E2AE030E0D2
:1011400025C0932D997FB92E8F36C1F018F48835BC
:1011500079F0B5C0803719F0883721F0B0C0E92F99
:10116000E061BE2EB4FE0DC0FB2DF460BF2E09C0A1
:1011700034FE0AC0292F2660B22E06C028E030E0D7
:1011800005C020E130E002C020E132E0F801B7FE06
:1011900007C060817181828193810C5F1F4F06C0FF
:1011A0006081718180E090E00E5F1F4FA3010E947B
:1011B000D009882E8618FB2DFF773F2E36FE0DC0F6
:1011C000232D2E7FA22E891458F434FE0BC032FC3E
:1011D00009C0832D8E7EA82E05C0B82CA32C03C079
:1011E000B82C01C0B92CA4FE0FC0FE01E80DF11D02
:1011F0008081803321F49A2D997EA92E09C0A2FE08
:1012000006C0B394B39404C08A2D867809F0B394D1
:10121000A3FC11C0A0FE06C0B21488F4280C922CC6
:101220009B180EC0B21460F4B60180E290E00E94F8
:101230009409B394F7CFB21418F42B1802C0982C69
:10124000212CA4FE10C0B60180E390E00E94940916
:10125000A2FE17C0A1FC03C088E790E002C088E5A9
:1012600090E0B6010CC08A2D867859F0A1FE02C02C
:101270008BE201C080E2A7FC8DE2B60190E00E9403
:101280009409891438F4B60180E390E00E9494092F
:101290009A94F7CF8A94F301E80DF11D8081B6018D
:1012A00090E00E9494098110F5CF222009F442CEEB
:1012B000B60180E290E00E9494092A94F6CFF601EC
:1012C0008681978102C08FEF9FEF2B960FB6F8941F
:1012D000DEBF0FBECDBFDF91CF911F910F91FF9069
:1012E000EF90DF90CF90BF90AF909F908F907F90C6
:1012F0006F905F904F903F902F900895FC01059064
:10130000615070400110D8F7809590958E0F9F1F07
:101310000895FC016150704001900110D8F780954C
:1013200090958E0F9F1F08950F931F93CF93DF9378
:10133000FB01238121FD03C08FEF9FEF2CC022FF13
:1013400016C046815781248135814217530744F4E2
:10135000A081B1819D012F5F3F4F318320838C930A
:10136000268137812F5F3F4F3783268314C08B013F
:10137000EC01FB010084F185E02D1995892BE1F644
:10138000D80116968D919C911797019617969C936C
:101390008E931697CE01DF91CF911F910F910895F3
:1013A000FA01AA27283051F1203181F1E8946F9396
:1013B0006E7F6E5F7F4F8F4F9F4FAF4FB1E03ED03C
:1013C000B4E03CD0670F781F891F9A1FA11D680FDA
:1013D000791F8A1F911DA11D6A0F711D811D911D0D
:1013E000A11D20D009F468943F912AE0269F112482
:1013F0003019305D3193DEF6CF010895462F4770E6
:10140000405D4193B3E00FD0C9F7F6CF462F4F7040
:10141000405D4A3318F0495D31FD4052419302D09E
:10142000A9F7EACFB4E0A695979587957795679544
:10143000BA95C9F700976105710508959B01AC0144
:101440000A2E06945795479537952795BA95C9F76B
:10145000620F731F841F951FA01D0895F894FFCF7E
:101460002C02524946462402000057415645666DFB
:1014700074201000000001000100401F0000803EA9
:1014800000000200100064617461000200000000AE
:10149000684867666748020096B79A9998B7FFFF51
:1014A000694867666748010097B79A9997B701003E
:1014B000674868666748000098B79B9995B703002E
:1014C000654869666748010096B79D9993B704001F
:1014D000664867666A48FEFF99B7989999B7000011
:1014E000684867666748010098B798999AB7FDFF02
:1014F0006C4863666B48FDFF9BB797999AB7FEFFF0
:10150000684869666548030096B79A9997B70100DD
:10151000674868666748010097B7999999B7FFFFD0
:10152000694867666648020097B799999AB7FDFFC0
:101530006B4863666C48FEFF99B7989999B7FFFFAF
:101540006A4865666848020096B79B9996B701009D
:10155000684866666A48FEFF99B7999998B7FFFF91
:101560006A4864666B48FEFF9AB7979999B7FFFF80
:101570006A4864666C48FBFF9DB795999BB7FDFF71
:101580006B4864666A48FFFF98B79A9997B700005E
:10159000694865666A48FFFF98B79B9995B702004E
:1015A00066486A666548020098B7989999B7FFFF40
:1015B000684869666648020095B79C9995B703002C
:1015C000664868666648030095B79C9996B7000020
:1015D0006A4865666A48FEFF99B79A9997B701000D
:1015E00066486A666548030095B79B9997B70100FE
:1015F000674868666648030095B79C9996B70000EF
:10160000694866666848010097B7999998B70000DD
:10161000694865666A48FEFF9AB7989998B70000CE
:10162000684867666848000098B7999997B70200BC
:10163000664869666648020095B79C9997B70000AE
:10164000694865666A48FEFF9BB795999CB7FDFFA0
:101650006A4866666748030094B79D9995B701008C
:10166000694865666A48FFFF97B79B9996B701007E
:10167000684866666948000097B79A9997B701006D
:10168000674869666548030095B79C9997B72575C3
:10169000000A0A0053746172740A0D002000444F5E
:1016A0004E450A0D004C43442054657374696E67BF
:0216B000000038
:00000001FF
