:100000000C9472000C9493000C9493000C94930045
:100010000C9493000C9493000C9493000C94930014
:100020000C9493000C9493000C9493000C94930004
:100030000C9493000C9493000C9493000C949300F4
:100040000C9493000C9493000C9493000C949300E4
:100050000C9493000C9493000C9493000C949300D4
:100060000C9493000C9493000C9493000C94EA006D
:100070000C9493000C9493000C9493000C949300B4
:100080000C9493000C9493000C9493000C949300A4
:100090000C9493000C9493000C9493000C94930094
:1000A0000C9493000C9493000C9493000C94930084
:1000B0000C9493000C9493000C9493000C94930074
:1000C0000C9493000C9493000C9493000C94930064
:1000D0000C9493000C9493000C9493000C94930054
:1000E0000C94930011241FBECFEFD1E2DEBFCDBF31
:1000F00000E00CBF12E0A0E0B2E0EEE2F9E100E0C7
:100100000BBF02C007900D92AE36B107D9F72BE0B6
:10011000AEE6B2E001C01D92AC30B207E1F70E943A
:100120004E070C94950C0C940000AC0178949091BF
:1001300081009260909381009091810098609093EB
:10014000810080ED97E09093890080938800109261
:10015000850010928400B19A20E030E02417350722
:1001600034F4B19BFECFB19A2F5F3F4FF7CF809110
:1001700081008D7F80938100089590916E02E92F18
:10018000F0E0E851F94F80839F5F90936E020895ED
:100190001F93CF93DF93EC0110E0812F90E0FE01DD
:1001A00001900020E9F73197EC1BFD0B8E179F079C
:1001B00040F4FE01E80FF91F80810E94BD001F5F1F
:1001C000ECCF8091C00085FD1092C600DF91CF91E9
:1001D0001F9108951F920F920FB60F9211240BB624
:1001E0000F928F93EF93FF93E0916F0280916E02D5
:1001F000E81759F0F0E0E851F94F80818093C6008C
:1002000080916F028F5F80936F02FF91EF918F91CA
:100210000F900BBE0F900FBE0F901F901895EAE73E
:10022000F0E0808180688083808188608083ECE753
:10023000F0E08081816680830895ECE7F0E09081B2
:1002400081E08927808308950F931F93CF93DF93D5
:10025000CDB7DEB72A970FB6F894DEBF0FBECDBF7D
:100260009F938F9386E092E09F938F938E010F5F11
:100270001F4F1F930F930E94AC090F900F900F9088
:100280000F900F900F9080E0F801E80FF11D908122
:10029000992321F09093C6008F5FF6CF89E092E01A
:1002A0000E94C8002A960FB6F894DEBF0FBECDBFDD
:1002B000DF91CF911F910F91089540E050E040935E
:1002C000C6002091A2063091A3062F573109220FB4
:1002D000331F220F331FFC0121933193CF014F5F56
:1002E0005F4F4115F1E05F0751F7089521E6209334
:1002F0007C0046ED40937A0020917A0024FFFCCFE9
:100300002091790030E0FC0121933193CF016150BD
:10031000710981F710927A000895EF92FF920F937E
:100320001F93CF93DF93CDB7DEB760970FB6F894E6
:10033000DEBF0FBECDBF7C01FC01808191818E01AB
:100340000F5F1F4F8938934194F08BE092E09F93A9
:100350008F9386E092E09F938F931F930F930E9459
:10036000AC090F900F900F900F900F900F90C80155
:100370000E94C8008CE092E00E94C800F7018281D0
:1003800093818938934194F08BE092E09F938F930F
:1003900086E092E09F938F931F930F930E94AC0986
:1003A0000F900F900F900F900F900F90C8010E9428
:1003B000C8008CE092E00E94C80060960FB6F894E6
:1003C000DEBF0FBECDBFDF91CF911F910F91FF9088
:1003D000EF900895CF93DF93D82FC92F7F936F931A
:1003E00086E092E09F938F93CF93DF930E94AC09B6
:1003F0008D2F9C2F0E94C8000F900F900F900F9090
:100400000F900F9087E292E0DF91CF910C94C8009B
:100410000F931F93CF93DF93EC010C811D8182E03A
:1004200090E00E948B08FC01249622E030E052E02C
:1004300040E072E060E0A0E0B0E089919991081797
:10044000190738F0A817B90748F4522F432FDC01D9
:1004500005C0AB01722F632FD8018C012F5F3F4F76
:100460002038310551F77083618352834383CF0174
:10047000DF91CF911F910F91089587B1807F87B948
:10048000459A469882E08A95F1F700C0479A92E033
:100490009A95F1F700C086B18295807F92E09A9597
:1004A000F1F700C0479895E09A95F1F70000479A58
:1004B00092E09A95F1F700C096B192E09A95F1F723
:1004C00000C0479895E09A95F1F7000087FDDECFD0
:1004D000459887B18F6087B90895282F22952F708E
:1004E0008F70611102C0469801C0469A92E09A95B9
:1004F000F1F700C0479A98B1907F922B98B995E098
:100500009A95F1F70000479895E09A95F1F7000069
:10051000479A98B1907F892B88B985E08A95F1F741
:100520000000479895E09A95F1F700000C943D0281
:10053000CF93C82F2FEF86E791E021508040904065
:10054000E1F700C0000087B18F6087B93F9A3E9AFB
:100550003D9A88B1807F88B947984598469800C0F1
:1005600000C00000479A419A25E02A95F1F7000063
:10057000479885E08A95F1F700000E943D0260E00F
:100580008C2F8C600E946D0260E088E2CF910C9409
:100590006D02CF93DF93EC018991882321F061E014
:1005A0000E946D02F9CFDF91CF910895EF92FF92F3
:1005B0000F931F93CF93DF9300D01F921F92CDB75D
:1005C000DEB79B01AE014F5F5F4F7A0145E0F70157
:1005D00011924A95E9F7FE0136960AE010E000977D
:1005E00031F0B8010E9463088293CB01F8CF2F3F0E
:1005F000FFEF3F0741F4F7018F010E191F098191A9
:100600008823D1F304C005E010E0021B130B0E0D8C
:100610001F1DC8018E199F09059744F4F8018191A7
:100620008F0161E0805D0E946D02F3CF0F900F900B
:100630000F900F900F90DF91CF911F910F91FF902E
:10064000EF900895883230F46111806460E0806832
:100650000C946D02089560E081E00E946D0283E0D9
:100660000E94980260E081E00E946D0281E692E0C3
:100670000C94C9023D0A410A4F0A660A850AAE0A6D
:10068000E00A1B0B5E0BAB0B010C5F0CC60C360DAE
:10069000AE0D2F0EB80E4A0FE40F86103111E31184
:1006A0009D125F132914FA14D315B3169A178818DC
:1006B0007D19791A7C1B841C931DA91EC41FE4207C
:1006C0000B22372368249E25D92618285C29A52AC1
:1006D000F12B422D962EED2F4831A63206346A3585
:1006E000CF363738A1390D3B7A3CE93D583FC940F8
:1006F0003A42AC431E45904601487249E34A534C86
:10070000C14D2F4F9A5004526C53D25435569657C0
:10071000F4584E5AA65BFA5C4A5E975FDF6023622C
:1007200063639E64D465056731685769786A936B23
:10073000A86CB76DC06EC26FBE70B371A1728873C2
:10074000687441751276DC769E7758780B79B579A6
:10075000577AF17A837B0C7C8D7C067D757DDC7D00
:100760003B7E907EDD7E217F5B7F8D7FB67FD67F57
:10077000EC7FFA7FFE7FFA7FEC7FD67FB67F8D7F9E
:100780005B7F217FDD7E907E3B7EDD7D757D067DFE
:100790008D7C0D7C837BF17A577AB5790B7958780B
:1007A0009E77DC761276417568748873A172B37196
:1007B000BE70C26FC06EB76DA86C936B786A5769D4
:1007C00031680567D4659E6463632362DF60975F69
:1007D0004A5EFA5CA65B4E5AF45896573556D25488
:1007E0006C5304529A502F4FC14D534CE34A7349F6
:1007F000014890461E45AC433A42C940583FE93D46
:100800007A3C0D3BA1393738CF366A350634A632EB
:100810004831ED2F962E422DF12BA52A5C29182860
:10082000D9269E25682437230B22E420C41FA91E45
:10083000931D841C7C1B791A7E1988189A17B3168D
:10084000D315FA1429145F139D12E3113111861088
:10085000E40F4A0FB80E2F0EAE0D360DC60C5F0C0E
:10086000010CAB0B5E0B1B0BE00AAE0A850A660A95
:100870004F0A410AFF7F0000F57F2403D77F470618
:10088000A67F6A09617F8B0C087FAB0F9C7EC71225
:100890001C7EE115897DF818E27C0B1C297C191F50
:1008A0005C7B23227C7A27258979262883781E2B56
:1008B0006B77102E4076FB300375DE33B573B93697
:1008C00054728C39E170563C5E6F163FC96DCD4154
:1008D000236C7A446C6A1C47A568B349CE663F4CCA
:1008E000E764BF4EF1623351EB609A53D65EF45524
:1008F000B35C4258815A815A4258B35CF455D65E73
:100900009A53EB603351F162BF4EE7643F4CCE66C1
:10091000B349A5681C476C6A7A44236CCD41C96D04
:10092000163F5E6F563CE1708C395472B936B57320
:10093000DE330375FB304076102E6B771E2B8378E9
:100940002628897927257C7A23225C7B191F297C1C
:100950000B1CE27CF818897DE1151C7EC7129C7E79
:10096000AB0F087F8B0C617F6A09A67F4706D77F94
:100970002403F57F0000FE7FDCFCF57FB9F9D77F0B
:1009800096F6A67F75F3617F56F0087F39ED9C7E61
:100990001FEA1C7E08E7897DF5E3E27CE7E0297C1D
:1009A000DDDD5C7BD9DA7C7ADAD78979E2D48378A9
:1009B000F0D16B7705CF407622CC037547C9B5736C
:1009C00074C65472AAC3E170EAC05E6F33BEC96DCB
:1009D00086BB236CE4B86C6A4DB6A568C1B3CE661D
:1009E00041B1E764CDAEF16266ACEB600CAAD65EB5
:1009F000BEA7B35C7FA5815A4DA342582AA1F555E5
:100A0000159F9A530F9D3351199BBF4E32993F4CFE
:100A10005B97B34994951C47DD937A443792CD4157
:100A2000A290163F1F8F563CAC8D8C394C8CB9363A
:100A3000FD8ADE33C089FB309588102E7D871E2B02
:100A40007786262884852725A4842322D883191F06
:100A50001E830B1C7782F818E481E1156481C712AC
:100A6000F880AB0F9F808B0C5A806A09298047065B
:100A70000B802403000000020001000380008002BC
:100A8000800180034000400240014003C000C002DA
:100A9000C001C0032000200220012003A000A0020A
:100AA000A001A0036000600260016003E000E002BA
:100AB000E001E0031000100210011003900090020A
:100AC000900190035000500250015003D000D0021A
:100AD000D001D0033000300230013003B000B0024A
:100AE000B001B0037000700270017003F000F002FA
:100AF000F001F003080008020801080388008802DA
:100B0000880188034800480248014803C800C80219
:100B1000C801C8032800280228012803A800A80249
:100B2000A801A8036800680268016803E800E802F9
:100B3000E801E80318001802180118039800980249
:100B4000980198035800580258015803D800D80259
:100B5000D801D8033800380238013803B800B80289
:100B6000B801B8037800780278017803F800F80239
:100B7000F801F8033F922F921F930F93DF93CF93C7
:100B8000DC01EB019927E4E7F6E000E011E02591B4
:100B900035914D915D91B503B0012C031001691F92
:100BA000BC03790B300C611D791FDA03790B300C13
:100BB000611D791F6993799369937993015010406E
:100BC00031F7CF91DF910F911F912F903F9011241A
:100BD00008953F922F925F924F927F926F929F92D1
:100BE0008F92BF92AF92DF92CF92FF92EF921F93BC
:100BF0000F93DF93CF93FC0181E090E0A0E8B0E099
:100C000004E0809F6001909FD00C7C019F938F93A4
:100C1000EF01A09FC00DD11DB09FD00DFF93EF93AA
:100C2000BB24AA2499270081118115950795688115
:100C3000798175956795A801061B170B460F571FFD
:100C40004193519320813181359527956A817B812C
:100C500075956795A901261B370B460F571F4193C2
:100C600051930F01E4E7F8E0EA0DFB1D4591559122
:100C700065917591F001950320010C031001491E47
:100C80009C03590A300C411C591ED803590A300CD8
:100C9000411C591EB70340012E033001891EBE03BB
:100CA000990A700C811C991EFA03990A700C811C18
:100CB000991E260C371C481C591C49925992B503A1
:100CC00020012C031001491EBC03590A300C411CA1
:100CD000591EDA03590A300C411C591E9703400172
:100CE0000E033001891E9E03990A700C811C991E07
:100CF000F803990A700C811C991E261837084808B9
:100D0000590849925992AC0CBD1CB1FE8CCF04E03D
:100D1000A09FC00DD11DE00DF11DB09FD00DF00DB5
:100D200081E0E81AF90A09F07BCFEF91FF918F91EA
:100D30009F91880F991FB695A795109609F060CFDF
:100D4000CF91DF910F911F91EF90FF90CF90DF90A7
:100D5000AF90BF908F909F906F907F904F905F90DB
:100D60002F903F9008953F922F925F924F927F92E3
:100D70006F929F928F92BF92AF921F930F93DF93C8
:100D8000CF935C01EB01E4E7FAE0992700E810E07B
:100D9000A591B591AA0DBB1D2D913D914D915D91F0
:100DA000B30320012A031001491EBA03590A300C6B
:100DB000411C591EBA03590A300C411C591ED50357
:100DC00040014C033001891EDC03990A700C811C20
:100DD000991EDC03990A700C811C991E260C371C85
:100DE000481C591C662477248824992421E030E08B
:100DF0004427552770E1220C331C441C551C661CEB
:100E0000771C881C991C220C331C441C551C661C26
:100E1000771C881C991C2AF4620E731E841E951E72
:100E200004C0621A730A840A950A220F331F441FF2
:100E3000287F256097FC22507A95E9F646953795EC
:100E4000279546953795279529933993015010405A
:100E500009F09ECFCF91DF910F911F91AF90BF907E
:100E60008F909F906F907F904F905F902F903F90CA
:100E700011240895AC019927D703F0014E03D00146
:100E8000E91FDE03F90BB00DE11DF91FFC03F90B9F
:100E9000B00DE11DF91FCF011124089582E080BB40
:100EA00083E080938100F8941092C50087E68093D8
:100EB000C40088E48093C10086E08093C2007894E7
:100EC000C0E1D7E248EF842E4AE0942E06E012E01B
:100ED00058EFE52E5AE0F52E60E071E088EE97E0DD
:100EE0000E9476013AEE632E37E0732E5301F30130
:100EF000C190D1903F0181E090E00E949500F50102
:100F00006081718182E796E00E94EA01F8EE6F1637
:100F1000F9E07F0659F78EE592E00E94C80081E172
:100F200092E00E94C800C601BE010E946308C60E7E
:100F3000D71ED7FE03C08FEFC80ED11C8D2D9D2D5F
:100F4000990F990B8C9F90018D9F300D9C9F300DB8
:100F50001124E8EEF7E080819181821B930B81934D
:100F6000919389E0E83EF807B1F762E772E088EE16
:100F700097E00E94BA05809184009091850090933B
:100F8000D7068093D606109285001092840082E7DF
:100F900092E00E94E90580918400909185009093F1
:100FA000B7068093B606109285001092840068EF11
:100FB00079E082E792E00E94B306809184009091EC
:100FC0008500909371028093700228EFC22E29E071
:100FD000D22EF601B080A180F2E0CF0ED11C81E0CC
:100FE00090E00E949500AF92BF921F930F93FF92E3
:100FF000EF920E94AC0988EF9AE00E94C80087E255
:1010000092E00E94C8000F900F900F900F900F90E9
:101010000F908C149D04E9F688EF99E00E94080275
:101020009093A5068093A40689E192E00E94C800EF
:10103000E091A406F091A5060190F081E02DEE0F5D
:10104000FF1FE850F64F6081718182E896E00E94B0
:10105000EA0189E292E00E94C800E091A406F091C2
:10106000A5066081718186EA96E00E94EA0189E323
:1010700092E00E94C800E091A406F091A5060280CB
:10108000F381E02DEE0FFF1FE850F64F6081718174
:1010900082E896E00E94EA0189E492E00E94C8009A
:1010A000E091A406F091A5066281738186EA96E03C
:1010B0000E94EA018EE592E00E94C80089E592E074
:1010C0000E94C80009CF97FB072E16F4009407D0A2
:1010D00077FD09D00E94770807FC05D03EF4909573
:1010E00081959F4F0895709561957F4F0895AA1B34
:1010F000BB1B51E107C0AA1FBB1FA617B70710F003
:10110000A61BB70B881F991F5A95A9F78095909534
:10111000BC01CD0108950F931F93CF93DF938230CD
:10112000910510F482E090E0E0910A0BF0910B0B36
:1011300020E030E0A0E0B0E0309719F1408151812B
:101140000281138148175907C8F08417950769F47D
:10115000109731F012960C93129713961C9327C098
:1011600000930A0B10930B0B22C02115310519F0C7
:101170004217530718F49A01BD01EF01DF01F8018E
:10118000DBCF21153105F9F0281B390B243031054F
:1011900080F48A819B816115710521F0FB019383A5
:1011A000828304C090930B0B80930A0BFE0132964E
:1011B00044C0FE01E20FF31F819391932250310945
:1011C000398328833AC02091080B3091090B232BD7
:1011D00041F420910202309103023093090B2093D5
:1011E000080B20910002309101022115310541F4D4
:1011F0002DB73EB74091040250910502241B350BD8
:10120000E091080BF091090BE217F307A0F42E1BF5
:101210003F0B2817390778F0AC014E5F5F4F24175A
:10122000350748F04E0F5F1F5093090B4093080B92
:101230008193919302C0E0E0F0E0CF01DF91CF9184
:101240001F910F910895CF93DF93009709F481C008
:10125000FC01329713821282A0910A0BB0910B0B02
:10126000109781F420813181820F931F2091080B08
:101270003091090B2817390751F5F093090BE093CA
:10128000080B67C0ED0120E030E0CE17DF0740F427
:101290004A815B819E0141155105F1F0EA01F5CFCC
:1012A000D383C28340815181840F951FC817D9070A
:1012B00059F488819981840F951F029691838083C8
:1012C0008A819B81938382832115310529F4F093D0
:1012D0000B0BE0930A0B3DC0E901FB83EA834991C4
:1012E0005991C40FD51FEC17FD0761F480819181DE
:1012F000840F951F0296E9019983888382819381E7
:101300009B838A83E0E0F0E012968D919C91139785
:10131000009719F0FD01DC01F7CF8D919C91119799
:101320009D012E5F3F4F820F931F2091080B30913C
:10133000090B2817390769F4309729F410920B0B21
:1013400010920A0B02C013821282B093090BA09371
:10135000080BDF91CF9108950F931F93CF93DF93E5
:10136000CDB7DEB72E970FB6F894DEBF0FBECDBF58
:101370000E891F8986E08C831A8309838FEF9FE78C
:101380009E838D83AE01465E5F4F688D798DCE0161
:1013900001960E94DB09EF81F885E00FF11F1082B2
:1013A0002E960FB6F894DEBF0FBECDBFDF91CF9162
:1013B0001F910F9108952F923F924F925F926F92DB
:1013C0007F928F929F92AF92BF92CF92DF92EF92D5
:1013D000FF920F931F93CF93DF93CDB7DEB72B9779
:1013E0000FB6F894DEBF0FBECDBF6C017B018A0142
:1013F000FC0117821682838181FFCCC1CE01019648
:101400003C01F6019381F70193FD859193FF819152
:101410007F01882309F4BAC1853239F493FD85919F
:1014200093FF81917F01853229F4B60190E00E94FB
:10143000FB0BE7CF912C212C312CFFE1F315D8F0D9
:101440008B3279F038F4803279F08332A1F4232D95
:1014500020611DC08D3261F0803369F4232D21603D
:1014600016C0832D8260382EE32DE4603E2E2AC004
:10147000F32DF8601DC037FC2DC020ED280F2A3059
:1014800040F08E32B9F436FC81C1232D2064322E17
:1014900019C036FE06C08AE0989E200D1124922EB7
:1014A00011C0EAE02E9E200D1124222EF32DF062B1
:1014B0003F2E08C08C3621F4832D8068382E02C060
:1014C000883641F4F70193FD859193FF81917F0167
:1014D0008111B3CF982F9F7D9554933028F40C5FE2
:1014E0001F4F9FE399830DC0833631F0833771F02E
:1014F000833509F059C021C0F801808189830E5FCE
:101500001F4F88248394912C530113C02801F2E0CB
:101510004F0E511CF801A080B18036FE03C0692D2A
:1015200070E002C06FEF7FEFC5010E94F00B4C012D
:101530008201F32DFF773F2E16C0280122E0420ED4
:10154000511CF801A080B18036FE03C0692D70E007
:1015500002C06FEF7FEFC5010E94E50B4C01F32D38
:10156000F0683F2E820133FC1BC0822D90E088166C
:101570009906B0F4B60180E290E00E94FB0B2A9439
:10158000F4CFF50137FC859137FE81915F01B601FB
:1015900090E00E94FB0B21102A9421E0821A91080E
:1015A0008114910471F7E8C0843611F0893641F551
:1015B000F80137FE07C060817181828193810C5FE1
:1015C0001F4F08C060817181072E000C880B990B9A
:1015D0000E5F1F4FF32DFF763F2E97FF09C09095AA
:1015E0008095709561957F4F8F4F9F4FF0683F2E8C
:1015F0002AE030E0A3010E94370C882E861845C0EF
:10160000853731F4232D2F7EB22E2AE030E025C01D
:10161000932D997FB92E8F36C1F018F4883579F063
:10162000B5C0803719F0883721F0B0C0E92FE061EC
:10163000BE2EB4FE0DC0FB2DF460BF2E09C034FEDB
:101640000AC0292F2660B22E06C028E030E005C06F
:1016500020E130E002C020E132E0F801B7FE07C02F
:1016600060817181828193810C5F1F4F06C0608110
:10167000718180E090E00E5F1F4FA3010E94370C44
:10168000882E8618FB2DFF773F2E36FE0DC0232DAA
:101690002E7FA22E891458F434FE0BC032FC09C0F0
:1016A000832D8E7EA82E05C0B82CA32C03C0B82C89
:1016B00001C0B92CA4FE0FC0FE01E80DF11D808110
:1016C000803321F49A2D997EA92E09C0A2FE06C06E
:1016D000B394B39404C08A2D867809F0B394A3FC24
:1016E00011C0A0FE06C0B21488F4280C922C9B18DE
:1016F0000EC0B21460F4B60180E290E00E94FB0BD1
:10170000B394F7CFB21418F42B1802C0982C212CE4
:10171000A4FE10C0B60180E390E00E94FB0BA2FE85
:1017200017C0A1FC03C088E790E002C088E590E004
:10173000B6010CC08A2D867859F0A1FE02C08BE25A
:1017400001C080E2A7FC8DE2B60190E00E94FB0B95
:10175000891438F4B60180E390E00E94FB0B9A9460
:10176000F7CF8A94F301E80DF11D8081B60190E076
:101770000E94FB0B8110F5CF222009F442CEB60166
:1017800080E290E00E94FB0B2A94F6CFF60186815E
:10179000978102C08FEF9FEF2B960FB6F894DEBFB4
:1017A0000FBECDBFDF91CF911F910F91FF90EF90B2
:1017B000DF90CF90BF90AF909F908F907F906F9071
:1017C0005F904F903F902F900895FC0105906150DD
:1017D00070400110D8F7809590958E0F9F1F089547
:1017E000FC016150704001900110D8F780959095F0
:1017F0008E0F9F1F08950F931F93CF93DF93FB01CD
:10180000238121FD03C08FEF9FEF2CC022FF16C064
:1018100046815781248135814217530744F4A081C2
:10182000B1819D012F5F3F4F318320838C932681AF
:1018300037812F5F3F4F3783268314C08B01EC0124
:10184000FB010084F185E02D1995892BE1F6D80183
:1018500016968D919C911797019617969C938E934F
:101860001697CE01DF91CF911F910F910895FA0144
:10187000AA27283051F1203181F1E8946F936E7FCF
:101880006E5F7F4F8F4F9F4FAF4FB1E03ED0B4E0C0
:101890003CD0670F781F891F9A1FA11D680F791F01
:1018A0008A1F911DA11D6A0F711D811D911DA11D12
:1018B00020D009F468943F912AE0269F1124301922
:1018C000305D3193DEF6CF010895462F4770405DBD
:1018D0004193B3E00FD0C9F7F6CF462F4F70405D6C
:1018E0004A3318F0495D31FD4052419302D0A9F7C7
:1018F000EACFB4E0A6959795879577956795BA95C1
:10190000C9F700976105710508959B01AC010A2E86
:1019100006945795479537952795BA95C9F7620F5D
:0E192000731F841F951FA01D0895F894FFCF1C
:10192E0000000C0B20002575000A0A004869676844
:10193E000053746172740A0D000A0A0D4D6178200D
:10194E004672657120313A20000A0D4D617820698A
:10195E006E64657820313A20000A0A0D4D617820B8
:10196E004672657120323A20000A0D4D6178206969
:10197E006E64657820323A2000444F4E450A0A0DB7
:0E198E00004C43442054657374696E6700007A
:00000001FF
